:100000000C947A030C9497030C9497030C94970325
:100010000C9497030C9497030C9497030C949703F8
:100020000C9497030C9497030C94A12A0C945629D2
:100030000C947F230C9497030C9497030C949703D0
:100040000C9497030C9497030C9497030C949703C8
:100050000C9497030C940D230C9497030C94970322
:100060000C9497030C9497030C9497030C949703A8
:100070000C9497030C9497030C9497030C94970398
:100080000C9497030C9497030C9497030C94970388
:100090000C9497030C9497030C9497030C94970378
:1000A0000C9497030C9497030C9497031907220759
:1000B00027072C07310736073B07400745074A0744
:1000C0004F07E604560759075C075F076207E80415
:1000D00065076A07050805083F083F088A08A6085B
:1000E0006F0ACF0AE808C609D709D709430B460BA0
:1000F000490B4C0B4F0B520B550B700D750D7F0DB3
:10010000730D780D7D0D7B0DEB0F051030106E100B
:10011000B010F610F910FC10FF10021105110811B3
:100120000B110E111111161119111C11211126118B
:1001300029112C1103202A2098212A20982172208D
:1001400095209821512165213D263D265026502697
:1001500046265026502650263D263D264B26502624
:1001600050264B2629002B00E400E1002A41000024
:100170001E00140004001D61E4004D001F001A0061
:1001800016001B00E104E300200008000700060041
:10019000E3002C002100150009001900E2004A00CC
:1001A000220017000A0005000000506423002F0001
:1001B0000000000F00004F00350030000000000775
:1001C0000000520024001C000B00110000005161CF
:1001D000250018000D001000E7004B0026000C0061
:1001E0000E003600E6002C00270012000F0037003A
:1001F0002F0028002D0013003342387130004E00CC
:100200002E00310034682A00E000000029000100BF
:1002100001000100010000003A001E02200222023B
:100220002E000E5D3B001F02210223020100C95C6B
:100230003C002F0226022F000100CA5C3D00300264
:100240002702300001000D5D3E003102350035020D
:100250000000C35C010001000000010000000C5D13
:1002600001000100000001000000C25C3F005200DC
:100270005100240200000B5D4000240021001E00FC
:10028000010001004100250022001F003700C55C6D
:1002900042002600230020002700C65C4300250200
:1002A0002E0231002E000100440045000100010033
:1002B0000100000001000100010001000100000038
:1002C0000100010001000100085D010001000100C2
:1002D000F2000100010001000100F000F100010046
:1002E000F400010001000100F3000100F50001002D
:1002F00001000100010001000000010001000100F7
:1003000000000100000001000100010000000100E8
:1003100000000100010001000100010000000100D7
:100320000100010001000100A9000100010001001D
:100330000100AC00AA00B600010001000100AB0002
:10034000A8000100010001000100010001000100FE
:10035000005C0100AE00010001000000000101018D
:100360000101010101010202020202020202020372
:100370000303030303030304040404040404050542
:100380000505050606060606070707070708080805
:1003900008090909090A0A0A0B0B0B0C0C0C0D0DB4
:1003A0000D0E0E0E0F0F0F1010111111121213134C
:1003B0001414151516161717181819191A1A1B1BC5
:1003C0001C1D1D1E1E1F2020212222232424252621
:1003D00026272829292A2B2C2D2D2E2F3031323259
:1003E000333435363738393A3B3C3D3E3F40414265
:1003F000434445464748494A4C4D4E4F505153544B
:10040000555658595A5B5D5E5F61626465666869FE
:100410006B6C6D6F7072737577787A7B7D7E80827E
:10042000838587888A8C8E8F91939596989A9C9EC7
:10043000A0A2A3A5A7A9ABADAFB1B3B5B7BABCBED7
:10044000C0C2C4C6C9CBCDCFD1D4D6D8DBDDDFE2A4
:10045000E4E7E9EBEEF0F3F5F8FAFDFF0A0000003F
:1004600000000306B200080001000000A800080018
:1004700002000200A0001400030057494E555342E9
:1004800000000000000000000000840004000700DD
:100490002A00440065007600690063006500490099
:1004A0006E00740065007200660061006300650004
:1004B00047005500490044007300000050007B00D5
:1004C0003900440042003700460031004600440035
:1004D0002D0037004500370041002D00340030006A
:1004E000300038002D0039003300360042002D0066
:1004F000360042004100360043003100390041001F
:1005000033003000380063007D00000000001B0352
:1005100001636F6E6669677572652E6572676F64D9
:100520006F782D657A2E636F6D0005010902A101B8
:1005300085020901A10005091901290515002501F8
:100540009505750181029501750381010501093049
:1005500009311581257F95027508810609381581B5
:10056000257F950175088106050C0A38021581253D
:100570007F950175088106C0C005010980A101852C
:10058000031A81002A8300160100260300950175D5
:10059000108100C0050C0901A10185041A01002A7F
:1005A0009C02160100269C02950175108100C00571
:1005B000010906A1018505050719E029E7150025B0
:1005C000019508750181020507190029EF1500251D
:1005D0000195F07501810205081901290595057538
:1005E000019102950175039101C005010906A10160
:1005F000050719E029E71500250195087501810215
:100600009501750881010507190029FF150026FFCE
:1006100000950675088100050819012905950575DD
:10062000019102950175039101C009025200030175
:1006300000A0FA09040000010301010009211101D1
:1006400000012240000705810308000A0904010097
:10065000010300000009211101000122C00007056B
:10066000820320000A0904020002FF0000000705BF
:100670008303400005070504034000051201100232
:1006800000000008EDFE071301000102030104034E
:100690003000000016034500720067006F00640020
:1006A0006F007800200045005A00000008035A003F
:1006B00053004100000004030904050F3900021C27
:1006C000100500DF60DDD88945C74C9CD2659D9E32
:1006D000648A9F00000306B2004500181005003828
:1006E000B60834A909A0478BFDA0768815B6650029
:1006F0000142000011241FBECFEFDAE0DEBFCDBF04
:1007000013E0A0E0B1E0EAE7FFE502C005900D923A
:10071000AE3AB107D9F726E0AEEAB3E001C01D92C8
:10072000A935B207E1F70E940B1A0C94BB2F0C9469
:1007300000004F925F926F927F929F92AF92BF9212
:10074000CF92DF92EF92FF920F931F93CF93DF939D
:10075000CDB7DEB72A970FB6F894DEBF0FBECDBF78
:10076000FC010081F18083819481892B39F01FEF96
:10077000F11206C091E00F3F19F403C091E001C0EF
:1007800090E090FD2CC76F0185E0DE011696019088
:100790000D928A95E1F7F60122818E819F812223B5
:1007A00049F00E942625182F682F8E819F810E9474
:1007B000A02503C00E947325182F24E5129FF00185
:1007C000112436E0F39EE00DF11D1124E00FF11D20
:1007D000EE0FFF1FEC59FE4F0591149180917605A5
:1007E000882319F08091770502C080E090E080FFB7
:1007F00015C01982F6018281882311F081E101C0C0
:1008000082E18A83F60180818B8381818C838EEFE4
:100810008D8365E0CE0101960E94C321F60182819D
:100820000930FDE51F0759F00A302DE5120709F4DC
:1008300046C0023C3CE5130709F08AC062C0882329
:1008400009F4CAC09091340581E0890F8770987FC0
:10085000853020F4892B8093340502C090933405B1
:10086000809134058770EFEF8E9FC001112495951C
:10087000879595958795992790938900809388000F
:1008800090938B0080938A0090938D0080938C00CE
:1008900040913405509135056091360570913705CA
:1008A0008FE090E00E945A2E60917205709173055E
:1008B00080917405909175050E94560D8DC0882316
:1008C00009F48AC08091340583FB222720F991E046
:1008D000922790FB83F980933405992329F040E017
:1008E00060E080E00E94BA164091340550913505D1
:1008F00060913605709137058FE090E00E945A2E86
:100900006BC0882309F46BC6909117018091340560
:100910009F3F59F4109217018F7E8093340540E079
:1009200060E080E00E94BA1606C09FEF9093170126
:100930008061809334054091340550913505609174
:100940003605709137058FE090E00E945A2E47C619
:100950000C30FDE51F0799F028F40B303DE5130737
:1009600051F03AC00D309DE5190789F00E30EDE5E4
:100970001E07F9F031C0882309F431C627C0882347
:1009800009F42DC681E00E94C6168CEA19C088239E
:1009900009F425C681E00E94C61686E58093B0055D
:1009A0008FEF8093B10580E88093B2050E94BE1658
:1009B00016C6882309F413C681E00E94C6168BE18F
:1009C0008093B0058FEF8093B105EECF81E001C039
:1009D00088E10E94C61603C6F6018281882319F1B8
:1009E000033EFCE51F07C1F050F4013E3CE5130750
:1009F00081F0023E8CE51807B1F481E010C0043E9E
:100A00009CE5190759F0053EECE51E0761F484E00A
:100A100006C01092300505C082E001C083E08093DB
:100A200030050E94911817FF71C0F601828188235A
:100A300009F46CC080910E068093AE0310920E06EE
:100A400080913005813071F048F08230C1F08430FF
:100A5000E1F486EE0E94432988E115C082EE0E94EF
:100A6000AA2C13C083E00E94242988E10E94AA2CAA
:100A700088E10E94432C83E00E94192906C082EE7F
:100A80000E94AA2C87E50E9443298FE39CE90197E5
:100A9000F1F700C000005801E894B7F82CE0E22E0E
:100AA000F12CC5010E2C02C0969587950A94E2F7A9
:100AB000282F2F7041F0822F90E02A3010F44D96AD
:100AC00004C0069702C087E290E00E94432994E0A8
:100AD000E91AF108ECEFEE16EFEFFE0611F7809140
:100AE0003005813039F040F0823031F0843051F4FB
:100AF00088E206C08CE204C082EE0E94432C02C051
:100B00000E9443298091AE0380930E06033FFCE5CB
:100B10001F0729F180F4083D3CE51307C9F0093DA2
:100B20008CE5180741F1073D9CE5190739F526E2E8
:100B300041EE61EE10C0053FECE51E07C1F098F0F4
:100B4000063F2CE51207D1F427E245EE66EE03C01E
:100B500027E245EE65EEC6010E94DA1840C526E29E
:100B600041EE60EEF8CF27E245EE64EEF4CF26E2E8
:100B700041EE62EEF0CF28E241E0ECCFF601928147
:100B8000992309F439C11092AF030230FCE51F0725
:100B900008F41CC106312CE5120738F098012A5FD1
:100BA0003C452730310508F011C10E94052490937F
:100BB0004705809346050F303CE5130709F4CFC085
:100BC00008F042C008309CE5190709F4A8C0F0F409
:100BD0000430FCE51F0709F490C068F402303CE5DE
:100BE000130709F486C003301C4509F0DFC080916B
:100BF00046058260D9C006309CE5190709F487C014
:100C000008F089C0809146058860CEC00B30FCE5B5
:100C10001F0709F495C068F409303CE5130709F48F
:100C200082C00A301C4509F0C1C080914605886029
:100C300080C00D309CE5190709F486C008F087C014
:100C4000809146058D7FB0C00A3FFCE51F0709F47F
:100C500057C050F502313CE5130709F488C068F429
:100C600000319CE5190709F47EC001311C4509F0EB
:100C70009DC0809146058F7B97C00431FCE51F071E
:100C800009F487C008F479C005311C4509F08EC00D
:100C90008091460582FB222720F991E0922790FB64
:100CA00082F990FB83F980C00D3F8CE5180709F4A9
:100CB00052C058F40B3FECE51E0729F10C3F1C45D0
:100CC00009F074C08091470560C00F3F2CE5120702
:100CD00009F458C080F101151D4509F067C08091E5
:100CE0004705982F909591708E7F892B90FB81F905
:100CF0004DC080914605816057C08091460519C05E
:100D0000809147051BC08091470582603FC080915C
:100D10004605806149C080914605806245C080914A
:100D20004605806441C00E94042980914605806880
:100D30003BC0846039C0809147058260816026C0D5
:100D4000809146058E7F30C08091460519C0809104
:100D50004605877F29C0809147058D7F17C0809108
:100D600046058F7E21C0809146058F7D1DC00E9463
:100D70000429809146058F7717C080914605877FAB
:100D80008B7F12C0809147058D7F8E7F80934705B2
:100D90000DC00E9404298091460587FB222720F977
:100DA00091E0922790FB87F9809346056091460574
:100DB0001091470584E090E00E94482E612F81E267
:100DC00090E00E94482E0E94042909C480910E06DA
:100DD0000631FCE51F0709F58A7A91E009F490E0F5
:100DE0009093B003882311F065E301C069E284EBBE
:100DF00095E00E94D0230EC006311C4509F0C1C009
:100E00008091B003882309F4E8C365E384EB95E09F
:100E10000E94A8230E94E024E2C38272F801E25CEF
:100E2000FC45E431F10508F057C0EA5AFF4F0C9435
:100E3000942E9091AF0581E089278093AF051092A1
:100E40000801B4CD4CE157E162E377E12CC042E305
:100E500057E16CE177E127C04EE057E165E177E1CA
:100E600022C045E157E16EE077E11DC04AEF56E14F
:100E700064E077E118C044E057E16AEF76E113C01F
:100E800046EE56E160EF76E10EC040EF56E166EEC9
:100E900076E109C042ED56E16CED76E104C04CED1F
:100EA00056E162ED76E10E94B41699C365E082E0F6
:100EB0000EC068E086E00BC06EE089E008C064E127
:100EC0008FE005C067E185E102C062E289E10E942E
:100ED000481785C383E27DCD0E3DECE51E0709F47E
:100EE00046C00830FDE51F0709F444C001151C4544
:100EF00009F047C00E9404293FEF84E39CE0315091
:100F000080409040E1F700C00000F89481E08093B9
:100F1000E00080E28093D8001092C900EFE1FEE487
:100F20003197F1F700C000001DBA109268001CBC98
:100F300010BE1FBA10927A0010926E0010926F00CD
:100F400010927100109272001092C9001092BC00B1
:100F500014B817B81AB81DB810BA1092BC0015B85A
:100F600018B81BB81EB811BA0C94003F38C30E94C1
:100F7000162435C39091780581E089278093780500
:100F80002EC3F60100811181992349F0C8010E9406
:100F90002625F82E682FC8010E94A02504C0C8018C
:100FA0000E947325F82EB8018F2D0E94A80B8C018A
:100FB000B82EF601E580E2949FE0E922F280F1107C
:100FC00010920D0680910B06877079F0FF2069F072
:100FD00080E2800F883048F082E00E94F125809105
:100FE0000B068770AA24A3948111A12C912E9294B0
:100FF0008FE09822892D90E08C30910508F0CFC2C7
:10100000FC01E659FF4F0C94942E812F807F1F70B6
:10101000882311F01295107FFF20B9F0112309F4F5
:1010200048C280E2800F883010F0B11006C0809175
:101030000E06182B10930E0605C080910D06182B76
:1010400010930D060E94E02434C2802F0E94432C8E
:10105000112309F4A4C2005E1095083010F0B110FD
:1010600006C080910E06182310930E0605C08091CD
:101070000D06182310930D060E94E02490C2812FC4
:10108000807F1F70803211F01295107FBB2021F0FD
:10109000F1E0BF16E1F028C0FF2081F080910F063B
:1010A000EE2051F001E0E01207C0182B181709F4E8
:1010B00076C210930F0673C2812B10C0EE2021F070
:1010C00021E0E21609F46BC20E94DA241FC0FF205F
:1010D00041F031E03E1508F462C2812F0E943929A7
:1010E0005EC2E1105CC212C0FF2019F0EE20A9F32D
:1010F000E0C1EE2059F0093309F0EDC18FEF97EE12
:10110000E3E081509040E040E1F7E3C1812F0E948D
:101110002E2945C2812F86958695837019F08130DE
:1011200059F03DC2FF2019F0C801937002C080E061
:1011300090E00E94921639C2FF2019F0C801937006
:1011400002C080E090E00E947C162FC2FF20F9F0E0
:10115000053F51F0063F71F0043FA9F48091B103BF
:101160009091B20381600BC08091B1039091B20362
:10117000826005C08091B1039091B2038460909326
:10118000B2038093B103802F0E94A5221EC0053FA9
:1011900051F0063F71F0043FA9F48091B1039091A2
:1011A000B2038E7F0BC08091B1039091B2038D7F0B
:1011B00005C08091B1039091B2038B7F9093B203ED
:1011C0008093B103802F0E94DB210E946923EDC12F
:1011D000812F837009F069C0F110E5C1902F9295BD
:1011E00096959770990F990F802F8F70482E512CDC
:1011F000612C712C092E04C0440C551C661C771CF4
:101200000A94D2F704FF12C04FE050E060E070E0B3
:1012100004C0440F551F661F771F9A95D2F7DB0154
:10122000CA0180959095A095B09503C080E090E0AC
:10123000DC0116951695412F4370423019F1C8F420
:10124000009110061091110620911206309113069C
:10125000413059F084299529A629B729BC01CD012F
:1012600060237123822393230AC0402A512A622AD1
:10127000732ABC01CD0164297529862997290E940A
:10128000AC2691C184299529A629B7290091100679
:10129000109111062091120630911306BC01CD0168
:1012A0006027712782279327EACFFF2019F0812F2B
:1012B000817001C08695882309F475C1902F92959D
:1012C00096959770990F990F802F8F70482E512CFB
:1012D000612C712C092E04C0440C551C661C771C13
:1012E0000A94D2F704FF12C04FE050E060E070E0D3
:1012F00004C0440F551F661F771F9A95D2F7DB0174
:10130000CA0180959095A095B09503C080E090E0CB
:10131000DC0116951695412F43704230D9F068F5DF
:101320000091720510917305209174053091750537
:10133000413059F084299529A629B729BC01CD014E
:1013400060237123822393231EC0402A512A622ADC
:10135000732A13C084299529A629B72900917205FB
:10136000109173052091740530917505BC01CD0174
:10137000602771278227932706C0BC01CD0164290D
:101380007529862997290E946F260DC11F70FF209D
:1013900039F0812F0E940A26802F0E94392903C12B
:1013A000802F0E942E29812F0E94CC25FCC0802FE7
:1013B000F2EFBF1609F43EC0FB1538F020EFB2166D
:1013C00061F031EFB31689F16FC093EFB916C9F12F
:1013D000E4EFBE1609F44CC067C0FF2009F1E1102C
:1013E000DEC01F7181E090E0A0E0B0E0AC01BD0183
:1013F00004C0440F551F661F771F1A95D2F78091BE
:10140000720590917305A0917405B09175058A01DC
:101410009B01082719272A273B27C901B80125C0A6
:1014200021E02E1508F4BBC0DCCFFF2029F0812F6E
:101430008F712CC0FF20D9F3812F8F710E94CC2592
:10144000AEC0FF2079F01F7181E090E0A0E0B0E035
:10145000BC01CD0104C0660F771F881F991F1A9524
:10146000D2F703C060E070E0CB010E946F2697C006
:10147000FF2079F01F71812F0E940A2638E0139F08
:10148000C0011124836080930B06812F0E940A26DD
:1014900086C081E00E94F12581E08E1508F07FC0B2
:1014A00082E00E94F1257BC0FF2039F0EE2009F494
:1014B000BECF802F0E94AA2C72C0EE2009F4BCCFB0
:1014C000893349F49FEFE7EEF3E09150E040F040BC
:1014D000E1F700C00000802F0E94432C60C012EF93
:1014E000B116E1F01B1538F020EFB21669F031EFBC
:1014F000B31611F12BC084EFB816C9F0B81660F01E
:1015000095EFB91671F022C0FF2009F44EC09091FA
:101510001A0681E0892708C081E0F826F0921A06B1
:1015200044C0F11042C081E080931A063EC0F11021
:101530003CC010921A0639C0FF2029F0809119068C
:10154000882329F329C0EE2011F32FC080911906BA
:10155000EE20C1F0882341F090911A0681E089279E
:1015600080931A0610921906802FFF2019F00E940E
:10157000AA2C1BC00E94432C86E0F60111928A958A
:10158000E9F713C0882389F0F1100FC090911A0673
:1015900081E0892780931A061092190606C088EF09
:1015A000890D843010F40E94A816AA20C1F0809101
:1015B0000B0680FD14C0F6011282859585958595F0
:1015C0000E940A26C6010E94990380910B06859508
:1015D000859585950E94CC2502C069E217CC2A9694
:1015E0000FB6F894DEBF0FBECDBFDF91CF911F9134
:1015F0000F91FF90EF90DF90CF90BF90AF909F90B2
:101600007F906F905F904F900895CF93E82F873031
:1016100080F58091090190910A01892B09F047C05A
:10162000CE2F64E670E080E40E943D2D90930A0185
:1016300080930901892BD1F464E670E082E10E9475
:10164000942D90930A0180930901892B79F481E00C
:1016500090E001C0880FCA95EAF764E670E08095D3
:101660000E94942D90930A0180930901CF910C94CC
:10167000102E90E0FC013797E730F105C0F4EA58EE
:10168000FF4F0C94942E209A289811C0219A2998E3
:101690000EC0229A2A980BC0239A2B9808C0529AFF
:1016A0005A9805C0539A5B9802C03E9A4698CF91CB
:1016B0000895CF93873008F03FC080910901909141
:1016C0000A01892B09F041C064E670E080E40E94C1
:1016D0003D2D90930A0180930901892B11F0C0E000
:1016E00027C064E670E083E10E94942D90930A0184
:1016F00080930901892B99F764E670E081E40E94E8
:101700003D2D90930A0180930901892B41F784E6CE
:1017100090E00E94C42D97FF05C090930A0180932A
:101720000901DDCFC82FC09510920A01109209015E
:101730000E94102E8C2F0AC09FB18FB1807F86959A
:1017400086959370892B809501C080E0CF91089594
:10175000CF93DF9324E5829FC0011124FC0146E072
:10176000749FE00DF11D1124E60FF11DEE0FFF1F18
:10177000EC59FE4FC591D491CE01C238D10569F123
:10178000B0F4C133D10509F475C048F4C932D105AC
:1017900009F469C0CA32D10509F473C085C0C533E4
:1017A000D10509F459C0C933D105B9F07DC0C33E94
:1017B000D10571F138F4C03ED105B1F0C23ED1057A
:1017C00011F172C0C63ED105B9F1C73ED105C9F1CC
:1017D000C43ED10509F068C024C02091460520FD13
:1017E0005DC021FD5BC060C02091460520FD50C05A
:1017F0002091470520FF57C18091460584FD51C1C6
:1018000083EE90E050C12091460522FF4CC1F4CFF9
:101810008091460582FD3FC08091470580FD3EC016
:10182000EBCF2091470521FF3EC18091460584FD05
:1018300038C187EE90E037C12091460523FF33C1C0
:10184000F4CF8091460583FD2CC08091470581FF30
:10185000ECCF84EE90E027C12091460525FF23C1FF
:1018600089E290E020C12091460525FF1CC185E357
:1018700090E019C12091460526FF15C18AE290E04B
:1018800012C12091460526FF0EC181E390E00BC1F5
:1018900089E390E008C182EE90E005C180EE90E01F
:1018A00002C186EE90E0FFC0C11552E5D50708F0F1
:1018B00075C0C11521E5D20728F09C2F8827816FBC
:1018C000906AF1C0C83ED10570F5C03ED10508F060
:1018D000EAC0C83AD105B8F4C53AD10550F08C2F0A
:1018E000855AC82FD0E0C458DC4F888190E09064BE
:1018F000DAC0C130D10509F4D6C008F4D2C02497AB
:1019000008F4CFC0D0C0CF3BD10508F0CAC08C2F9F
:10191000885AC82FD0E0CC0FDD1FC158DC4F88811A
:1019200099819464C0C0C11540E2D40760F4C11528
:1019300051E0D50708F0B7C0C03FD10508F4B1C0E9
:10194000CE019065B0C0C11580E4D80708F4A9C0E5
:10195000C11520E5D20720F4CE019F70906AA3C084
:10196000CE01F4E096958795FA95E1F7282F23703C
:101970003C2F337081E090E002C0880F991F3A95A8
:10198000E2F79C68922B2C2F2F702695269550E21B
:10199000259F90011124822B932B85C0C11546E50C
:1019A000D40708F03FC0C11555E5D50748F08C2F86
:1019B0000E9497188F7190E0982F8827906273C0CB
:1019C000C11584E5D80728F09C2F8827846F906A7A
:1019D0006AC09E01237033279C2F96959695C1155A
:1019E000D34580F441E050E002C0440F551F2A95D2
:1019F000E2F780E2989F90011124CA01822B932B79
:101A00009C6851C041E050E002C0440F551F2A9528
:101A1000E2F780E2989F90011124CA01822B932B58
:101A20009A6841C0C1155AE5D50778F5C11589E511
:101A3000D80710F18C2F8F700E9497189E0194E0A8
:101A4000369527959A95E1F72F7030E0322F2227AF
:101A50003069A901482B0EC090568115904208F5B7
:101A60008D2F8F710E9497189E01332730628F71DE
:101A7000A901582BCA0117C0C11528E5D20788F063
:101A80009C2F8827806F906A0EC0C1154BE5D40744
:101A900040F0CE01C1155CE5D507F0F699279066B8
:101AA00002C080E090E0DF91CF910895CF92DF9265
:101AB000EF92FF926B017C010E948A2456985E98F7
:101AC00025982D9826982E9827982F9890E0FC011D
:101AD0003197E730F105A8F4E358FF4F0C94942EAA
:101AE000259A2D9A0EC0259A2D9A269A2E9A09C0CB
:101AF000259A2D9A04C0259A2D9A269A2E9A279ACD
:101B00002F9AC701B601FF90EF90DF90CF90089514
:101B100040E060E080E00E94BA1681E080935406C5
:101B2000089580E290E090930A01809309018091EA
:101B3000BD0381110EC00E94372D81E08093BD034B
:101B40002FEF83ED90E3215080409040E1F700C0FB
:101B5000000064E670E080E40E943D2D90930A014D
:101B600080930901892B09F04EC064E670E080E0A3
:101B70000E94942D90930A0180930901892B09F00A
:101B800042C064E670E080E00E94942D90930A01C8
:101B900080930901892BB9F564E670E08FE30E9418
:101BA000942D90930A0180930901892B61F50E947D
:101BB000102E64E670E080E40E943D2D90930A01AF
:101BC00080930901892BF9F464E670E08CE00E94AF
:101BD000942D90930A0180930901892BA1F464E666
:101BE00070E080E00E94942D90930A018093090197
:101BF000892B49F464E670E08FE30E94942D909362
:101C00000A01809309010E94102E80910901089514
:101C1000CF93DF9356985E9825982D9826982E9806
:101C200027982F98C8E8D0E08FEF90E099838883B9
:101C3000AAE8B0E011969C938E93ECE8F0E09183D3
:101C40008083259A2D9A2FEF80E792E021508040E3
:101C50009040E1F700C00000269A2E9A2FEF80E70F
:101C600092E0215080409040E1F700C00000279AA8
:101C70002F9A2FEF80E792E0215080409040E1F7CB
:101C800000C0000025982D982FEF80E792E02150AA
:101C900080409040E1F700C0000026982E982FEF7A
:101CA00080E792E0215080409040E1F700C00000C2
:101CB00027982F988091340587702FEF829FC0015D
:101CC000112495958795959587959927998388836C
:101CD00011969C938E939183808356985E98259855
:101CE0002D9826982E9827982F98DF91CF910895B8
:101CF00084B1807F84B985B1807F85B98AB1837FC3
:101D00008AB98BB1837F8BB93E984698089580B38A
:101D10008C7080BB81B3836F81BB0895AF92BF92FB
:101D2000CF92DF92EF92FF920F931F93CF93DF93A7
:101D30008091090190910A01892BA1F08091BC0347
:101D40008F5F8093BC0381110DC00E94910D90E0C4
:101D500090930A0180930901892B21F40E94651751
:101D60000E94080E68E3E62E65E0F62E6701D0E0DB
:101D7000A12C07E00D0F8D2F0E94050B802F0E94D4
:101D8000050B8D2F0E94590BF6019081891719F0D0
:101D9000808311E001C010E0802F0E94590BF601F2
:101DA0009781891719F0878381E001C080E0182BA3
:101DB000A12A0E94780EDF5FFFEFCF1ADF0AD7302B
:101DC000C1F60E945D236AEF70E00E946C2EBC0198
:101DD000482F8091B4038823D9F11092B403E09185
:101DE0002E05F0912F05DF011E9690E08BEF0AEF94
:101DF00010E020812B3F99F0C22ED12C421720F009
:101E00009B012C193D0905C098012C193D09260F8D
:101E1000371F2E31310514F0808301C091E03196D7
:101E2000EA17FB0731F79093B403A11002C0911198
:101E300011C01092B303E0912E05F0912F059091FF
:101E4000B403ABE4B5E0BF01625F7F4F80E028C020
:101E5000A110EFCF8091B3038111EBCF0091B503B7
:101E60001091B6032091B7033091B8038FB7F8945F
:101E70004091140650911506609116067091170650
:101E80008FBFDB01CA01801B910BA20BB30B401764
:101E9000510762077307E0F40197A109B10918C05F
:101EA000E70129917E013C91321741F030813B3F9F
:101EB00021F440832C9391E001C081E0319611968A
:101EC0006E177F0769F79093B4038093B303C6CF6F
:101ED0004FB7F8940091140610911506209116063C
:101EE000309117064FBF0093B5031093B6032093AC
:101EF000B7033093B8034091AB055091AC056091A6
:101F0000AD057091AE054F3FDFEF5D076D077D07B3
:101F1000E9F0AA27BB276C017D01C094D094E0941E
:101F2000F094C416D506E606F70620F48FEF9FEF6F
:101F3000DC0104C0840F951FA61FB71F8093AB055B
:101F40009093AC05A093AD05B093AE058091540677
:101F5000811108C0D091AF058D2F837019F0D695EF
:101F6000D69501C0D0E0809108018130A1F038F011
:101F7000823009F488C1833009F492C1B8C110924B
:101F800016010093A7051093A8052093A905309387
:101F9000AA0581E082C180910701D8130DC020916C
:101FA000AF05237030E04091060150E081E0241736
:101FB000350719F480E001C081E081708093180139
:101FC0004D2F50E04631510508F04BC1FA01EC5756
:101FD000FF4F0C94942E882309F443C1809116017D
:101FE000182F110F110F180F05E0010F013308F022
:101FF00000E3101708F0F6C020E040E060E0812F19
:1020000090E00E94BC161F5FF4CF80911601182F3C
:10201000110F110F180F05E0010F013308F000E355
:102020006091B0057091B1058091B2050E940618CB
:10203000F62EE72ED82E101708F0D4C0E12FF0E0CE
:10204000DF01A45BBC4F8C9190911701982331F074
:102050002D2D4F2D6E2DCF010E94BC161F5FEBCF93
:1020600080911601182F110F110F180F05E0010FA5
:10207000013308F000E3E090B105B090B205209183
:10208000B30550E4F52E3F2D329F312D1124F32E50
:10209000101708F0A7C0C12ED12CF601E45BFC4F4D
:1020A0009081809117018923B9F0F601EE0FFF1F8F
:1020B000E351FD4F808182958F706091B0058F9DB7
:1020C000600D11247E2D8B2D0E940618462F282F7F
:1020D000672FC6010E94BC161F5FDACF80911601E0
:1020E000182F110F110F180F05E0010F013308F021
:1020F00000E3C090B105B090B2052091B30530E483
:10210000D32E3D2D329F312D1124D32E101708F0E0
:1021100069C0E12EF12CF701E45BFC4F90818091C6
:1021200017018923D9F0F701EE0FFF1FE451FD4F8E
:102130006081D69EB001112495E0759567959A95BA
:10214000E1F78091B005680F7C2D8B2D0E94061859
:10215000462F282F672FC7010E94BC161F5FD6CFBE
:1021600080911601182F110F110F180F05E0010FA4
:10217000013308F000E3E090B005F090B105D09095
:10218000B2056091B3056695669566958091A70541
:102190009091A8050E94FC170E948117805887FD26
:1021A0008195880F282F3D2D239F212D1124822FCB
:1021B000B7010E940618F62EE72ED82E101790F4BD
:1021C000E12FF0E0DF01A45BBC4F8C9190911701EF
:1021D000982331F02D2D4F2D6E2DCF010E94BC166E
:1021E0001F5FECCF81E00033E8F13BC089E293E16F
:1021F0001AC08DEF92E117C082E094E11FC083EE18
:1022000093E11CC088EC93E11EC08CEA93E11BC0F3
:102210008BEF92E108C082EF92E105C089EE92E176
:1022200002C08EEC92E10E946A1E1CC08FEB92E10C
:102230000AC083ED97E102C08BE993E10E940E1E74
:1022400011C087E893E10E94921D0CC081E992E1E0
:1022500005C08FE592E102C081E292E10E94311D4A
:1022600001C080E0909116019F5F9093160181114B
:102270003EC082E08093080180911801811137C02F
:10228000DD2351F034C0D09307018091AF058370F6
:10229000809306010E94451483E08093080127C0C3
:1022A0000091A7051091A8052091A9053091AA05D4
:1022B0008FB7F89440911406509115066091160658
:1022C000709117068FBFDB01CA01801B910BA20B17
:1022D000B30B401751076207730718F40197A10960
:1022E000B1094A97A105B10510F01092080120919B
:1022F00078058091BA039091BB03222309F43FC073
:10230000892B31F425982D9826982E9827982F9868
:102310008091BA039091BB039170892B79F48091DD
:10232000B903882319F026982E9802C0269A2E9A6F
:102330009091B90381E089278093B9038091BA0312
:102340009091BB038130984780F01092780560919E
:1023500072057091730580917405909175050E94C6
:10236000560D1092BB031092BA038091BA0390915C
:10237000BB0301969093BB038093BA0310C0892BD3
:1023800071F01092BB031092BA03609172057091C4
:10239000730580917405909175050E94560D8A2DE4
:1023A000DF91CF911F910F91FF90EF90DF90CF9031
:1023B000BF90AF9008958033910540F5880F991F25
:1023C000880F991FFC01EC5DFE4F528133818081A3
:1023D00083707181A82FB0E0E0E98E9FC0011124C5
:1023E0008C529C4FFC01E70FF11DB4976083FC01F8
:1023F000E50FF11DB4974083830F911DFC01B49745
:102400002083FD01EE52FC4F81E080830895FF920E
:102410000F931F93CF93DF93182F062FF42EC0E056
:10242000D0E02F2D402F612FCE010E94DB1121968D
:10243000C033D105B1F7DF91CF911F910F91FF907C
:1024400008950F931F9310E0F801EE0FFF1FE45162
:10245000FD4F9081905797FD9195000F111FF80146
:10246000E351FD4FE081F0E0B097DF01AA0FBB1F01
:102470008D010E0F1F1F2003D001219FB00D1124CD
:10248000E8E3F0E0E91BF10997FDF3959F01220FC6
:10249000331F89010E0F1F1F40039001419F300D14
:1024A00011242A0F3B1F37FF02C021583F4F220F34
:1024B000232F221F330B620F1F910F9108950F934B
:1024C0001F93522F10E0F801EE0FFF1FE351FD4F55
:1024D000E081F0E0B097EE0FFF1F9F015203D001A3
:1024E000539FB00D1124000F111FF801E451FD4F4F
:1024F000008110E000571109000F111F40039001E7
:10250000419F300D11242A0F3B1F37FF02C0215875
:102510003F4F220F232F221F330B620F1F910F916A
:1025200008950F931F93522F10E0F801EE0FFF1F35
:10253000E351FD4FE081F0E0B0979F015203D001DD
:10254000539FB00D1124000F111FF801E451FD4FEE
:10255000008110E00057110940039001419F300DA8
:1025600011242A0F3B1F37FF02C021583F4F220F73
:10257000232F221F330B620F1F910F910895EF92AB
:102580000F931F9393E0099F8001112415950795E0
:102590006E2D600F1F910F91EF900895A22F50E0C4
:1025A000FA01EE0FFF1FE351FD4F9081905297FD0E
:1025B0009195440F551FFA01E451FD4F3081232FAF
:1025C00030E02A1B3109290F311D97FD3A95620F22
:1025D0000895E42FF0E0EE0FFF1FE351FD4F6081FF
:1025E000621B0895E42FF0E0EE0FFF1FE451FD4F52
:1025F0006081621B0895622F0895E42FF0E0EE0FD2
:10260000FF1FE451FD4F408134EE439F412D1124C3
:10261000E82FF0E050E0445E5F4FDA01A21BB10901
:102620009D01B7FF03C031952195310993E0220F39
:10263000331F9A95E1F7AF01421B530B9A0157FFE5
:1026400002C020E030E0582F259F212D1124822F39
:102650000895E42FF0E0EE0FFF1FE451FD4F40819D
:1026600034EE439F412D1124E72FF0E050E0445E0B
:102670005F4FDA01A21BB1099D01B7FF03C031957D
:102680002195310993E0220F331F9A95E1F7AF01AD
:10269000421B530B9A0157FF02C020E030E0279FF6
:1026A000212D1124722F0895FC019B01009721F424
:1026B00077FF2BC080E80895AC0197FF04C0442742
:1026C0005527481B590BB901640F751F37FD0CC006
:1026D000241B350BC901A5E0880F991FAA95E1F7C6
:1026E0000E94802E80E20CC0CB0165E0880F991F0C
:1026F0006A95E1F7BA01621B730B0E94802E80E697
:10270000861BF7FF03C08195089580E00895EF923E
:102710000F93CF93DF93D72FC82FC9010E19BA019A
:102720000E945413602F681B7D2F8C2FDF91CF9157
:102730000F91EF9008950F93CF93DF93D72FC82F6A
:10274000C901BA010E945413682F600F7D2F8C2F8E
:10275000DF91CF910F910895EF920F931F93CF9335
:10276000DF93D62FC72F182FC9010E19010FBA01F9
:102770000E945413081B202F219F212D1124822FEA
:102780006D2F7C2FDF91CF911F910F91EF900895C6
:10279000EF920F931F93CF93DF93D62F172FC82F4E
:1027A000C9010E19070FBA010E945413702F781B2C
:1027B000719F712D11246D2F8C2FDF91CF911F915F
:1027C0000F91EF900895FF920F931F93CF93DF9394
:1027D000F62ED72F182FC901C12FC01BBA010E9496
:1027E0005413982F990F890FC81B2C2F219F212D2F
:1027F0001124822F6F2D7D2FDF91CF911F910F918B
:10280000FF900895FF920F931F93CF93DF93F62EBF
:10281000172FD82FC901C72FC01BBA010E9454130C
:10282000982F990F890F7C2F781B719F712D112480
:102830006F2D8D2FDF91CF911F910F91FF900895F4
:102840000F931F93CF93DF93082F000FEB0114E238
:102850001093BE03EFEBF3E0DE018D91819383E0F3
:10286000EF3CF807D1F724E630E041E150E06EEBB1
:1028700073E0802F0E94E92D105F6096143B41F7B2
:10288000DF91CF911F910F9108958091D2038823FA
:1028900029F064ED73E084E70E9420141092D203C3
:1028A0008091D303882329F064E674E087E70E94CF
:1028B00020141092D3030895EEEBF3E0608341837C
:1028C00024E630E042E050E0BF01880F0C94E92D8F
:1028D000FF920F931F93CF93DF93E62FF0E0E85E14
:1028E000FA4F90819923B1F0F82E82E1689FE001C0
:1028F000112400E010E0F801EC0FFD1FEC50FB4F3D
:102900004081602F8F2D0E945C140F5F1F4F02319A
:10291000110589F7DF91CF911F910F91FF900895D5
:10292000CF93DF93C82F4BE06DEF0E945C1440E023
:102930006AE08C2F0E945C148FE39CE90197F1F709
:1029400000C0000040E060E08C2F0E945C1440E07A
:1029500061E08C2F0E945C1440E066E08C2F0E94A6
:102960005C1440E06DEF8C2F0E945C14D0E040E0DE
:102970006D2F8C2F0E945C14DF5FD231C1F740E0D5
:102980006D2F8C2F0E945C14DF5FD432C1F740E0C2
:102990006D2F8C2F0E945C14DF5FD43BC1F74BE09E
:1029A0006DEF8C2F0E945C1441E06AE08C2F0E9436
:1029B0005C1440E06DEF8C2FDF91CF910C945C1490
:1029C0007F928F929F92AF92BF92CF92DF92EF92BF
:1029D000FF920F931F93CF93DF930E94372D84E7CD
:1029E0000E94901487E70E94901404E211E0E12C09
:1029F000F12C42E138E0A32EB12CCC24C394D12C8D
:102A000077247394D80111962C91119730E0C90165
:102A100084971296CC911297D0E0A4971396EC91DC
:102A2000F0E0B497BC0197FF02C0695F7F4FA3E05D
:102A300075956795AA95E1F7D701AA0FBB1FAA0F55
:102A4000BB1FAC5DBE4F2C91237030E0429FD00184
:102A5000439FB00D1124AC50BB4F4D01860E911C0D
:102A6000B5010E94802EB60102C0660F771F8A95BD
:102A7000E2F7CB01D4019C91892B8C93CE01D7FD39
:102A8000079663E0959587956A95E1F7429FB001B7
:102A9000439F700D11246C507B4F4B01880E911C8D
:102AA000CE01B5010E94802EB60102C0660F771FCD
:102AB0008A95E2F7CB01D4019C91892B8C93CF01AD
:102AC000F7FD079653E0959587955A95E1F7429F54
:102AD000E001439FD00D1124CC50DB4FC80FD11D16
:102AE000CF01B5010E94802EF60102C0EE0FFF1F3C
:102AF0008A95E2F7CF019881892B8883F901E85EF6
:102B0000FA4F7082FFEFEF1AFF0A0C5F1F4F60E36E
:102B1000E616F10409F076CF60E084E70E946814BD
:102B200061E087E7DF91CF911F910F91FF90EF90C8
:102B3000DF90CF90BF90AF909F908F907F900C943C
:102B400068140F931F93CF93DF93CDB7DEB76797CA
:102B50000FB6F894DEBF0FBECDBF4B8B5C8B6D8B79
:102B60007E8B8F8B0E891F890115110531F05F3F18
:102B700031F481E04F3F19F403C081E001C080E0EF
:102B800080FD32C0242F30E0A1E0B0E0042E01C06F
:102B9000AA0F0A94EAF7852F90E0662319F0709146
:102BA0001A0605C0FC01E05EFA4F70817A23772394
:102BB000A1F046E0489FF001499FF00D1124E20F7B
:102BC000F31FEE0FFF1FEC51FE4F40815181FC01BE
:102BD000E05EFA4F9081A92B06C0FC01E05EFA4F3F
:102BE000A0958081A823A08386E0FE013D96DF01A9
:102BF000982F1D929A95E9F74D875E876F87198BFD
:102C0000088BDE01179601900D928A95E1F7CE01AF
:102C100007960E94282781113EC086E0FE01379664
:102C2000DE01119601900D928A95E1F7FF81E8850A
:102C30006A857B856115710531F0EF3F31F481E0E4
:102C4000FF3F19F403C081E001C080E080FD23C094
:102C50002091210630E0C9010196877099274091A3
:102C6000520650E08417950779F1F983EA837D8352
:102C70006C8396E0929FD001939FB00D1124AE5DBE
:102C8000B94FFE01319601900D929A95E1F780932C
:102C900021060E94B62616E08091520690912106E8
:102CA0008917F9F0189FC00111248E5D994F0E9479
:102CB00028278823B1F08091520690E00196877012
:102CC000992780935206E8CF0E940429109221068A
:102CD00010925206EBE1F6E086E0DF011D928A9544
:102CE000E9F767960FB6F894DEBF0FBECDBFDF9150
:102CF000CF911F910F91089520911E0530911F05CE
:102D00002817390771F090931F0580931E05E091F5
:102D10004805F0914905309721F00084F185E02DB8
:102D20000994089520911C0530911D052817390735
:102D300071F090931D0580931C05E0914805F0917A
:102D40004905309721F00680F781E02D0994089518
:102D5000E0914805F0914905309721F00190F0810C
:102D6000E02D099480E00895882311F0FA0101C054
:102D7000FB0109940C9407120C94DB1145E050E020
:102D80006CE170E08FEA95E00C94382EEFEAF5E004
:102D9000880F880F90819370892B8083109208018F
:102DA0000C94BE16EFEAF5E0248130E1231B08F411
:102DB00020E024830C94BE16EFEAF5E0248130E194
:102DC000230F08F42FEF24830C94BE16EFEAF5E0EE
:102DD000238130E1231B08F420E023830C94BE16EA
:102DE000EFEAF5E0238130E1230F08F42FEF23838E
:102DF0000C94BE16EFEAF5E0228130E1231B08F4C3
:102E000020E022830C94BE16EFEAF5E0228130E147
:102E1000230F08F42FEF22830C94BE16EFEAF5E09F
:102E20008181885081830C94BE16EFEAF5E08181A0
:102E3000885F81830C94BE169091AF05892F86958B
:102E40008695815C8F739370882321F0880F880F9B
:102E5000892B02C0892F84658093AF0510920801E9
:102E60000C94BE169091AF05892F869586958F5F3D
:102E70008F739370863120F4880F880F892B02C0DE
:102E8000892F84608093AF05109208010C94BE16C0
:102E90009091AF0596959695981720F0961710F497
:102EA0000C9432170C94C616EFEAF5E081E38083A8
:102EB0008091190190911A01A0911B018183928345
:102EC000A3838FE784830C94BE160E94E01480E0F5
:102ED00090E00E94322E8F3E9E4F21F00E941624D9
:102EE0000E94541745E050E06CE170E08FEA95E0F5
:102EF0000E94142E8091AF058C7F11F40C9454170E
:102F00000895482F982F46FD9095E92FEF739F70F5
:102F100046FD9F5FE295EF70EE0FF0E0E45EFE4F3E
:102F20002181299F802D212D112482958F7022953A
:102F3000207F822B3081982F930F892F47FD819519
:102F400080580895BC018230910508F40895613ECF
:102F50008EE1780748F49B0195E0369527959A9580
:102F6000E1F748E0420F01C04FEF91E0242F30E03D
:102F7000290F311D35952795229FF001239FF00DD4
:102F8000F00D11246E177F0718F44FEF420F04C0A5
:102F90002F3F39F091E0920F491740F78FEF890FDB
:102FA00008958FEF08950F93CF93DF93D72FC82FF6
:102FB00047FD4195E8E3F0E0CF01841B910947FD0F
:102FC0009395889FB001899F700D700D1124229FE9
:102FD000C001239F900D900D1124860F971F0E9412
:102FE000A217682F660F860F682F600F7D2F8C2F1A
:102FF000DF91CF910F91089520E030E0869F212D41
:10300000969F200D311D1124C9010895EF92FF9262
:103010000F931F93CF93DF93F62E472FE82FF0E007
:10302000711106C0E45AFC4F6491762F862F72C04E
:10303000272F30E0E45AFC4FE4910E2F10E056E0C9
:10304000659FC0011124CFEFD0E0BE010E946C2E1D
:103050005BEA5603C001579F900D11248F0D911DFF
:103060008F0D911D982F990F890F7E01E21AF30A97
:10307000E09ED001E19EB00DF09EB00D1124489F5E
:10308000A0011124452F55277E01E41AF50AE09E80
:10309000A001E19E500DF09E500D11247E01E81A12
:1030A000F108E29EC001E39E900DF29E900D112466
:1030B000892F9927C81BD90BC09FC001C19F900DB4
:1030C000D09F900D11246230710591F048F4611584
:1030D0007105E1F061307105A9F48B2F752F19C0CE
:1030E0006430710561F038F06630710579F00AC01E
:1030F000892F7B2F0EC08E2F7B2FE52F0AC08E2F9E
:10310000792F02C0852F7E2FEB2F03C08B2F7E2FB0
:10311000E92F6E2FDF91CF911F910F91FF90EF90CC
:103120000895609130058CE090E00C94482E9091C9
:10313000460592FF0DC0282F2871283019F4877F8B
:10314000846006C0282F2471243011F48B7F88609E
:1031500093FF0DC0282F2871283119F4877E8461D0
:1031600006C0282F2471243111F48B7E88612091B0
:10317000470520FF0DC0382F3871383019F4877F8C
:10318000816006C0382F3171313011F48E7F886034
:1031900021FF0DC0282F2871283119F4877E816105
:1031A00006C0282F2171213111F48E7E886194FD93
:1031B000877E08950F931F93CF93DF93C62FD42F4D
:1031C000122FFC0182818823C9F06093AF030E9413
:1031D0005D2390931B0580931A0580E28C0F883045
:1031E00008F057C0C77081E001C0880FCA95EAF7A0
:1031F000DF91CF911F910F910C9439298091AF03EA
:10320000681330C080911A0590911B050E943323EA
:10321000883C910538F500E20D0FCD17B9F080E23A
:103220008C0F883040F4C77081E001C0880FCA95C8
:10323000EAF70E942E29083028F581E09D2F97702B
:1032400001C0880F9A95EAF70E943929812F0E94C0
:1032500043290830F0F4D77081E001C0880FDA9577
:10326000EAF70AC080E28C0F883098F4C77081E0DA
:1032700001C0880FCA95EAF7DF91CF911F910F9196
:103280000C942E29812FDF91CF911F910F910C94D7
:103290004329DF91CF911F910F910895CF93DF9331
:1032A00000D01F92CDB7DEB790919D05943019F5EF
:1032B00089837B836A8382E08093E9008FEF90911A
:1032C000E800815095FD06C095ED9A95F1F7000054
:1032D0008111F5CF8091E80085FF0DC040E050E0FE
:1032E00063E070E0CE0101960E94B41E8091E80078
:1032F0008E778093E8000F900F900F90DF91CF9121
:103300000895CF93DF93EC010E943B2C823011F0A3
:10331000843031F4BE0184E0DF91CF910C944E19DA
:10332000DF91CF910895BC016058710983E00C943E
:103330004E19CF93DF93EC010E943B2C823011F0A9
:103340008430F9F482E08093E9008FEF9091E800F7
:10335000815095FD06C095ED9A95F1F70000811119
:10336000F5CF8091E80085FF0CC040E050E066E0BA
:1033700070E0CE010E94B41E8091E8008E778093A9
:10338000E800DF91CF910895CF93DF93EC010E9485
:103390003B2C823011F08430D9F5809115018823BF
:1033A00039F08091460587FF03C060E282E002C0E9
:1033B00068E081E08093E9008FEF9091E800815010
:1033C00095FD06C095ED9A95F1F700008111F5CFB6
:1033D0008091E80085FF1CC080911501811105C016
:1033E00040E050E068E070E003C070E040E050E092
:1033F000CE010E94B41E8091E8008E778093E80091
:1034000080E2FE01ABE7B5E001900D928A95E1F70D
:10341000DF91CF910895CF93DF93CDB7DEB7C95534
:10342000D1090FB6F894DEBF0FBECDBF84B7877F3A
:1034300084BF0FB6F894A89580916000886180934E
:103440006000109260000FBE90E080E80FB6F89424
:1034500080936100909361000FBE85B7806885BF3F
:1034600085B7806885BF0E949A290E94402A809172
:10347000E20084608093E200789480919D05882327
:10348000A1F01091E9001F709091EC00892F8170DC
:1034900090FD80E8182B1092E9008091E80083FDF0
:1034A0000E94E01E1F701093E90082E084BD93E04B
:1034B00095BD9AEF97BD80936E000E94910D90E0AC
:1034C00090930A01809309010E94780E0E94870E52
:1034D000A8E3B5E0EBE4F5E011921D9225E0E935B3
:1034E000F207D1F78EE090E00E949A2E80932E058D
:1034F00090932F05FC010E962BEF21938E179F07BB
:10350000E1F780E090E00E94322E8F3E9E4F11F056
:103510000E9416240E9465178CE090E00E94242EE1
:1035200090E0A0E0B0E08093300590933105A09347
:103530003205B093330589EA8093800089E0809357
:10354000810024982C983F988AB18F7C8AB96E9814
:10355000479A8BB180638BB9769A8FE090E00E9496
:103560002C2E609334057093350580933605909327
:10357000370567708FEF869FB001112475956795A9
:10358000759567957727709389006093880070938D
:103590008B0060938A0070938D0060938C009091F3
:1035A000340594FF03C08093170102C010921701E5
:1035B0000E94080E80E090E00E94322E8F3E9E4FC7
:1035C00011F00E94162482E090E00E94242E809345
:1035D00063050E940524909347058093460583E088
:1035E00090E00E94242E682F70E080E090E00E941E
:1035F000AC268091AF05837011F410920801809180
:10360000AF058C7F81608093AF058BE091E0909354
:10361000490580934805EE24EA948EEFF82E93E056
:10362000492E21E4C22ED12CCC0EDD1E82E0C80E24
:10363000D11C30E1732E42E1642E58E1A52EB12C4D
:1036400060E4562E80919D05853009F04CC00E94A3
:10365000880D80919D05843019F110924A050FB6AE
:10366000F894A895A09260000FBE509260000E944E
:10367000880D83B7817F846083BF83B7816083BFF8
:103680007894889583B78E7F83BF0FB6F894A895FA
:1036900080916000886180936000109260000FBE8E
:1036A00080919C05882309F4CDCF0E94910D90E074
:1036B00090930A01809309010E94780E0E94870E60
:1036C000EBE4F5E0119295E0E935F907D9F70E94AE
:1036D0008E0EEBE4F5E081918111A0C125E0E93582
:1036E000F207C9F7AFCF0E948E0EA4E6B5E0EBE477
:1036F000F5E000E010E0302F21919D919227A1F19B
:1037000080E099249394492F492151F161968FAF1C
:10371000619762963FAF6297292181E009F480E0CA
:1037200063968FAF63970E945D238160782F6596C3
:103730009FAF8EAF659761964FAD619762965FAD13
:10374000629763966FAD639765968FAD65970E949C
:10375000A115F801EC59FA4F80819826908229C072
:103760008F5F990C863079F60F5F1F4F0E30110571
:1037700009F0C1CF6696EFAE66976796EFAE679792
:1037800068961FAE68970E945D238160782F6A96C5
:103790009FAF8EAF6A9766964FAD669767965FAD9F
:1037A000679768966FAD68976A968FAD6A970E9423
:1037B000A11580916005909161050E9433239C01C1
:1037C00090915F05992321F02431310508F478C0E8
:1037D00080915B0510915C0581110BC011113DC1F9
:1037E00020915D05211139C120915E05211135C15E
:1037F00067C09F3F19F09F5F90935F05181624F4F0
:103800000E94822280935B0580915B0587FF05C043
:103810000E948222819580935B05111624F40E94F8
:10382000822280935C0580915C0587FF05C00E9421
:103830008222819580935C0530915B053323E1F012
:1038400020915C052223C1F045EB3403C001112413
:10385000992319F090935B0503C081E080935B0589
:1038600035EB2303C0011124992319F090935C05D3
:1038700003C081E080935C0580915D05181624F4F7
:103880000E94602280935D0580915D0587FF05C0E1
:103890000E946022819580935D0580915E051816D7
:1038A00024F40E94602280935E0580915E0587FF6C
:1038B00005C00E946022819580935E050E94692365
:1038C0000E94A81690916205891721F00E94A816FF
:1038D0008093620580919D05843009F0B3CE80937A
:1038E000E9008091E80082FFADCE8091E80085FF7D
:1038F00021C00E94B92981111BC000E410E0CE0153
:1039000001964C0108C08091F100F40181934F01B0
:103910000150110969F08091E80085FDF4CF809194
:10392000E8008B778093E8000E94B929882399F3F7
:1039300091E001C090E08091E8008B778093E800EF
:10394000992309F47FCE1981111114C08091780553
:10395000882351F11092780581E0809377052296B3
:103960001FAE229723961FAE23972496FFAE24976F
:1039700063E06DC01130C1F422961FAE22972396EA
:103980001FAF23978CE0ECE8F2E0D60101900D9296
:103990008A95E1F76096FFAE60976FE0CE018F5B8E
:1039A0009F4F0E94C3214ECE80917705882391F1CD
:1039B000123019F0133091F045C06091720570918A
:1039C000730580917405909175050E948A24229652
:1039D0001FAE229723961FAF239714C08A81813090
:1039E00039F040F0823071F581E08093760502C0B5
:1039F0001092760522961FAE229723964FAE2397FC
:103A00008091760524968FAF24972596FFAE259753
:103A100064E01DC02296EFAE229718C079BC69BC45
:103A200009B400FEFDCF8091D8008F7D8093D8002F
:103A30008091E00082608093E0008091E00081FD51
:103A4000FCCF00CE81E022968FAF229761E0CE01BD
:103A50008F5B9F4F0E94C321F5CD9F3F09F0CBCED6
:103A6000DCCE9F92AF92BF92CF92DF92EF92FF9205
:103A70000F931F93CF93DF936C0180911601C82F92
:103A8000CC0FCC0FC80F15E01C0F113308F010E35A
:103A90006091B305669566958091A7059091A805FC
:103AA0000E94FC17D82F80E48D0F0E94811790E8A8
:103AB000F92EF80E8D2F0E94811720E8922E980E75
:103AC000C11700F5AC2EB12CF501E45BFC4F9081E1
:103AD000809117018923A1F06091B0057091B10523
:103AE0008091B205ED2E0C2F292D4F2DF601099551
:103AF0000E940618462F282F672FC5010E94BC166A
:103B0000CF5FDECF81E0103308F080E0DF91CF910E
:103B10001F910F91FF90EF90DF90CF90BF90AF90EB
:103B20009F9008956F927F928F929F92AF92BF92D3
:103B3000CF92DF92EF920F931F93CF93DF933C01CD
:103B400080911601C82FCC0FCC0FC80FD5E0DC0F29
:103B5000D13308F0D0E36091B30566958091A70555
:103B60009091A8050E94FC17182FCD1708F044C0AB
:103B70008C2E912CF401E45BFC4F90818091170115
:103B80008923C1F1F401EE0FFF1FE451FD4FC08006
:103B9000D12C80E7C81AD108F401EE0FFF1FE351C2
:103BA000FD4FA080B12CE0E2AE1AB108CC9C900190
:103BB000CD9C300D300D1124AA9CC001AB9C900D02
:103BC000900D1124820F931F0E94A217082F60915D
:103BD000B0057091B1058091B205E12E9501A60165
:103BE000F30109950E940618462F282F672FC4015C
:103BF0000E94BC16CF5FB9CF81E0D03308F080E0DF
:103C0000DF91CF911F910F91EF90DF90CF90BF90F8
:103C1000AF909F908F907F906F900895CF92DF929A
:103C2000EF92FF920F931F93CF93DF936C018091DC
:103C30001601C82FCC0FCC0FC80FD5E0DC0FD13345
:103C400008F0D0E36091B30566958091A705909147
:103C5000A8050E94FC17182FCD1778F5EC2EF12C33
:103C6000F701E45BFC4F908180911701892319F1E2
:103C7000F701EE0FFF1FE351FD4F208130E020528E
:103C80003109F701EE0FFF1FE451FD4F408150E075
:103C9000405751096091B0057091B1058091B2050E
:103CA000012FF60109950E940618462F282F672F2D
:103CB000C7010E94BC16CF5FCFCF81E0D03308F0A0
:103CC00080E0DF91CF911F910F91FF90EF90DF90F7
:103CD000CF900895DF92EF92FF920F931F93CF93AF
:103CE000DF938C0180911601C82FCC0FCC0FC80F29
:103CF000D5E0DC0FD13308F0D0E36091B3056695D1
:103D000066958091A7059091A8050E94FC17D82E72
:103D1000CD17F0F4EC2EF12CF701E45BFC4F908111
:103D200080911701892391F06091B0057091B105E0
:103D30008091B2052D2D4C2FF80109950E9406188F
:103D4000462F282F672FC7010E94BC16CF5FE0CFF8
:103D500081E0D03308F080E0DF91CF911F910F9187
:103D6000FF90EF90DF900895EF92FF920F931F93D3
:103D7000CF93DF937C018B010E94B929811119C077
:103D8000E70101151105A1F08091E80085FD0AC049
:103D90008091E8008E778093E8000E94B9298823FB
:103DA00081F307C089918093F10001501109E9CF97
:103DB00080E0DF91CF911F910F91FF90EF900895D8
:103DC0001F93CF93DF93CDB7DEB7AA970FB6F894C2
:103DD000DEBF0FBECDBFEFE9F5E08091F10081932A
:103DE00025E0E73AF207C9F78091A0058930B9F1DB
:103DF00050F4823009F4A5C0833009F45FC08130EB
:103E000009F0EEC00CC08B3009F470C008F488C013
:103E1000823409F4AEC0853409F4C5C0E1C0809194
:103E20009F05813A09F0DCC08091E800877F80938C
:103E3000E8008091A3059091A405892B21F460E20C
:103E40008BE795E003C060E080E090E070E00E94C6
:103E5000DD2B8091E8008B778093E800C1C08091D2
:103E60009F05813209F0BCC08091A3059091A40503
:103E7000029708F0B5C08091E800877F8093E80042
:103E80008091E80082FD05C080919D058111F8CFE9
:103E9000A7C02091F3008091F20090E0922B02974E
:103EA00029F48091F1008B7F813021F48091F10021
:103EB00080937A058091E8008B7758C080919F05A8
:103EC000813A09F08DC08091A3059091A405892BBA
:103ED00009F086C08091E800877F8093E800809198
:103EE000E80080FFFCCF809115013BC080919F05C9
:103EF000813209F075C08091A3059091A405892BAA
:103F000009F06EC08091E800877F8093E8000E94EE
:103F1000EC298091A105809315010E94042960C0BD
:103F200080919F05813209F05BC08091E800877F16
:103F30008093E8000E94EC298091A2058093790586
:103F40004FC080919F05813A09F04AC08091E800F6
:103F5000877F8093E8008091E80080FFFCCF80910C
:103F600079058093F1008091E8008E778093E800D6
:103F70002FC080919F05803C99F58091A305909179
:103F8000A405029741F58091A1059091A205892B86
:103F900011F58091E800877F8093E8006BE170E085
:103FA0008EE095E013C080919F05803CC9F480911C
:103FB000A3059091A405079771F48091E800877F8D
:103FC0008093E80062EB70E08CE594E00E947C2B2B
:103FD0000E94EC2905C08091EB0080628093EB0089
:103FE0008091E80083FFA4C180919F059091A00576
:103FF000492F50E04A30510508F09AC1FA01E656BF
:10400000FF4F0C94942E803821F0823809F090C133
:1040100008C080919B0590919C05992389F082604E
:104020000FC08091A3058F70873008F081C1809305
:10403000E9008091EB0085FB882780F91092E90068
:104040009091E800977F9093E8008093F1001092A0
:10405000F10033C1282F2D7F09F06AC1882319F0A0
:10406000823061F065C18091A105813009F060C1A5
:10407000933009F080E080939C052EC08091A105CB
:1040800081112AC08091A3058F702FEF280F263051
:1040900008F04EC18093E9002091EB0020FF1CC086
:1040A000933021F48091EB00806214C09091EB007A
:1040B00090619093EB0021E030E0A90102C0440F31
:1040C000551F8A95E2F74093EA001092EA0080912A
:1040D000EB0088608093EB001092E9008091E8008B
:1040E000877FEEC0811124C11091A1051F778091B7
:1040F000E3008078812B8093E3008091E800877F44
:104100008093E8000E94EC298091E80080FFFCCFBA
:104110008091E30080688093E300111102C082E087
:1041200001C083E080939D0503C18058823008F070
:10413000FFC08091A1059091A2058C3D53E09507A9
:1041400079F583E08A838AE289834FB7F894DE01A8
:10415000139620E03EE051E2E32FF0E05093570049
:10416000E49120FF03C0E295EF703F5FEF708E2F68
:1041700090E0EA3010F0C79601C0C0968D939D93F1
:104180002F5F243149F74FBF8091E800877F8093EC
:10419000E8006AE270E0CE0101960E94DD2B7BC050
:1041A0004091A3055091A405292F332723303105D1
:1041B00011F168F42130310509F4C9C0223031050C
:1041C00009F0B6C062E570E08AE296E05DC0213297
:1041D000310509F43BC02232310509F444C02F30C7
:1041E000310509F0A5C0ECEBF6E0E4916E2F70E02C
:1041F0008AEB96E045C0992781309105B9F070F0BF
:1042000082309105D9F0039709F092C0EEE8F6E00C
:10421000E4916E2F70E08EE896E032C0E6EBF6E0B7
:10422000E4916E2F70E086EB96E02AC0ECEAF6E0AF
:10423000E4916E2F70E08CEA96E022C0E4E9F6E0AB
:10424000E4916E2F70E084E996E01AC041155105A3
:1042500009F482C04130510509F06AC069E070E09C
:1042600085E596E011C04115510509F47AC0413049
:10427000510509F05DC060EC70E08AE295E004C091
:104280006115710509F454C02091E800277F20933F
:10429000E8000E947C2B8091E8008B778093E800F7
:1042A00047C0803809F044C08091E800877F809340
:1042B000E80080919E058093F1008091E8008E7760
:1042C0008093E8000E94EC2933C0811131C08091B5
:1042D000A1059091A2059927029754F58091E800D5
:1042E000877F8093E8001091A10510939E050E949E
:1042F000EC29111106C08091E30087FD02C081E026
:1043000001C084E080939D0542E061EC81E00E9461
:104310000B2A42E261EC82E00E940B2A42E361EC4C
:1043200083E00E940B2A42E360EC84E00E940B2AA7
:104330008091E80083FF1AC08091E800877F809316
:10434000E8008091EB0080628093EB000FC062E197
:1043500070E08CE796E098CF69E070E08CE396E03F
:1043600093CF60E470E08AEE95E08ECFAA960FB608
:10437000F894DEBF0FBECDBFDF91CF911F9108959E
:1043800080917A05089520919D05243099F423E0C9
:104390002093E90070E040E050E00E94B41E8823C2
:1043A00021F010927705109278058091E8008E77C1
:1043B0008093E8000895803F39F480915C0587FF81
:1043C0006CC010925C0569C0813F29F480915C0546
:1043D0001816BCF362C090915B05823F29F497FFE9
:1043E0005CC010925B0559C0833F19F41916CCF3D9
:1043F00054C0893F41F480915D0518160CF04DC002
:1044000010925D054AC08A3F29F480915D0587FFBF
:1044100044C0F6CF8B3F39F480915E0587FF3DC0E5
:1044200010925E053AC08C3F29F480915E05181603
:10443000BCF333C0843F21F480915A058E7F17C0AE
:10444000853F21F480915A058D7F11C0863F21F46C
:1044500080915A058B7F0BC0873F21F480915A05CC
:10446000877F05C0883F31F480915A058F7E809305
:104470005A0513C08D3F21F4809118068E7F0BC022
:104480008E3F21F4809118068D7F05C08F3F29F45F
:10449000809118068B7F8093180680915B058111AF
:1044A0000EC080915C0581110AC080915D0581116B
:1044B00006C080915E05811102C010925F050895CB
:1044C0008091180680FD16C081FD16C082FD18C0BF
:1044D00080915F05882391F0883290F428E0829FD4
:1044E000C001112468E270E00E94802E862F672BA5
:1044F00029F007C082E0089584E0089581E00895DE
:1045000088E008958091180680FD17C081FD17C0CE
:1045100082FD19C080915F05882399F08C3398F44F
:1045200023E2829FC00111246CE370E00E94802E80
:10453000862F672B49F481E0089588E0089581E192
:10454000089585E0089583E20895803F21F40E9454
:104550008222819504C0813F29F40E9482228093A7
:104560005C050895823F21F40E948222819504C057
:10457000833F29F40E94822280935B050895893F3E
:1045800019F40E94602205C08A3F31F40E94602223
:10459000819580935D0508958B3F21F40E946022F0
:1045A000819504C08C3F29F40E94602280935E05AF
:1045B0000895843F21F480915A05816017C0853F9A
:1045C00021F480915A05826011C0863F21F48091C8
:1045D0005A0584600BC0873F21F480915A0588609A
:1045E00005C0883F31F480915A05806180935A0557
:1045F00008958D3F21F48091180681600BC08E3F95
:1046000021F480911806826005C08F3F29F48091C3
:104610001806846080931806089578941F920F926C
:104620000FB60F9211248F939F93AF93BF938091F6
:10463000140690911506A0911606B09117060196E2
:10464000A11DB11D8093140690931506A093160624
:10465000B0931706BF91AF919F918F910F900FBEAE
:104660000F901F901895CF92DF92EF92FF920F93C9
:104670001F932FB7F894409114065091150660913E
:104680001606709117062FBF6A017B01EE24FF24E6
:104690008C0120E030E0C016D106E206F30610F4EB
:1046A000415051099A01281B390BC9011F910F91E3
:1046B000FF90EF90DF90CF9008952FB7F8948091FE
:1046C000140690911506A0911606B09117062FBFFB
:1046D0000895E0914805F0914905309749F082E04E
:1046E000809359050480F581E02D89E595E00995D1
:1046F0000E945D23909361058093600508951F9249
:104700000F920FB60F9211248F939F93AF93BF9385
:1047100080914A05811113C080911406909115066D
:10472000A0911606B09117064196A11DB11D809368
:10473000140690931506A0931606B0931706BF9122
:10474000AF919F918F910F900FBE0F901F90189572
:10475000209115012223C9F02091460527FF15C09D
:10476000262F2695269526952E31C8F4FC01E20FBA
:10477000F11D677081E090E001C0880F6A95EAF74B
:1047800080959281892382830895FC010696228177
:10479000621301C012823196E817F907C1F7089534
:1047A000209115012223C1F02091460527FF14C056
:1047B000262F2695269526952E3130F5FC01E20F01
:1047C000F11D677081E090E001C0880F6A95EAF7FB
:1047D0009281892B82830895FC0132962FEF30E07D
:1047E0004191641789F02F3F19F4411101C0232F23
:1047F0003F5F3630A9F72F3F39F0FC01E20FF11D82
:1048000027FDFA95628308950895CF9384E090E0A0
:104810000E94242EC82F81E290E00E94242E2C2F8B
:1048200030E0A901582BCA01CF9108956FEE7EEFB9
:1048300080E090E00E94662E60E082E090E00E94BE
:10484000482E60E083E090E00E94482E109210060F
:1048500010921106109212061092130660E084E086
:1048600090E00E94482E60E081E290E00E94482E95
:1048700060E085E090E00E94482E60E086E090E0F5
:104880000E94482E6FEF87E090E00E94482E40E0A3
:1048900050E0BA0188E090E00E945A2E60E08DE07E
:1048A00090E00E94482E40E050E0BA0188E190E09C
:1048B0000E945A2E60E087E190E00E94482E40E07E
:1048C00050E0BA018CE190E00E945A2E60E080E254
:1048D00090E00E94482E10923405109235051092F7
:1048E00036051092370584E080618093340540914D
:1048F00034055091350560913605709137058FE08C
:1049000090E00E945A2E40E050E0BA0183E190E02E
:104910000C945A2ECF92DF92EF92FF926C01EE240C
:10492000FF24C114D104E104F10421F0C701B60150
:1049300020E101C020E0C72ED82EE92EFF24C114AB
:10494000D104E104F10419F0285FC701B6016B013D
:104950007C0154E0F694E794D794C7945A95D1F724
:10496000C114D104E104F10419F02C5FC701B601B0
:104970006B017C0142E0F694E794D794C7944A9582
:10498000D1F7C114D104E104F10419F02E5FC7017D
:10499000B601DC01CB01B695A79597958795892B34
:1049A0008A2B8B2B09F02F5F822FFF90EF90DF90E7
:1049B000CF90089580910F06811110920F060895EF
:1049C00090910E0680910D06892B20910C06982F50
:1049D000922B9093B40580910F068823D9F0892BF0
:1049E0008093B40580911501882331F080914605AC
:1049F00087FF02C08EE101C086E0E6EBF5E090E0C3
:104A0000815028F021912223D9F39F5FF9CF911192
:104A10000E94DA24E0914805F09149053097A9F009
:104A200080911501882359F08091460587FF07C0C2
:104A30008091B4058093B50585E08093B40502802C
:104A4000F381E02D84EB95E009940895BF92CF9215
:104A5000DF92EF92FF920F931F93CF93DF938C011E
:104A6000C0907205D0907305E0907405F0907505C4
:104A70008091100690911106A0911206B091130634
:104A8000C82AD92AEA2AFB2ACFE1D0E0D701C601F9
:104A90000C2E04C0B695A795979587950A94D2F7E2
:104AA00080FD04C0219790F7B12C07C0BC2EB8013F
:104AB0008C2F0E94A80B0197A9F38B2DDF91CF912A
:104AC0001F910F91FF90EF90DF90CF90BF900895CE
:104AD000CF93DF93EC010E942625BE010E94A80B14
:104AE000DF91CF910895292F220F920F990F890FEF
:104AF000682F669566956695982F977085E0689FF4
:104B0000B001112440E050E080E0FB01E40FF51F0C
:104B1000EC52FA4F208130E0092E02C036952795DD
:104B20000A94E2F721703327042E01C0220F0A9461
:104B3000EAF7822B4F5F5F4F4530510531F70895FB
:104B4000292F220F920F990F890FE82FE695E695EE
:104B5000E695877051E001C0550F8A95EAF785E028
:104B6000E89FF0011124EC52FA4F20E030E070E0B1
:104B70004081CB01022E02C0969587950A94E2F7F8
:104B80008170819584278523842781932F5F3F4FF0
:104B90002530310569F708950F931F9341E050E0E8
:104BA00060E070E004C0440F551F661F771F8A95B0
:104BB000D2F74095509560957095809172059091CF
:104BC0007305A0917405B09175058A019B010823B6
:104BD00019232A233B23C901B8011F910F910C947B
:104BE0006F2620910B068095822380930B06982FC9
:104BF000977079F430E0482F082E000C550B2417DD
:104C0000350739F08595859585950E94CC251092BC
:104C10000B0608950F931F9341E050E060E070E0B1
:104C200004C0440F551F661F771F8A95D2F78091E5
:104C3000720590917305A0917405B09175058A0174
:104C40009B01082B192B2A2B3B2BC901B8011F9163
:104C50000F910C946F260E946825292F2F70E92F41
:104C6000E295EF704E2F50E0FA013297EE30F105E9
:104C7000B8F4EC55FF4F0C94942E803F99F018F443
:104C8000883E70F40FC0843F59F40CC0883E50F049
:104C9000813F31F407C0822F8695869586950895C9
:104CA00080E0089581E0089510920D0610920C06A0
:104CB0000E94E024E9E5F5E086E0DF011D928A9597
:104CC000E9F710925F05109218060E94692380E0B0
:104CD00090E00E94921680E090E00C947C16CF92B7
:104CE000DF92EF92FF92CF93DF9300D000D0CDB749
:104CF000DEB70E94560D6B017C01809176058823FA
:104D000019F08091770502C080E090E080FF0FC02D
:104D1000198282E08A83C701B6010E948A248B83AC
:104D20008EEF8C8364E0CE0101960E94C321C09275
:104D30007205D0927305E0927405F09275050E9499
:104D400054260F900F900F900F90DF91CF91FF900E
:104D5000EF90DF90CF900895609310067093110646
:104D600080931206909313060C9454268091520659
:104D700090912106891719F08F5F8770FBCF0895F6
:104D8000CF938091200682958F7009F05FC080914B
:104D90001D06882309F45AC080915206B09121065D
:104DA00070911B06A0911C0640911E0650911F0693
:104DB00091E07F3F09F090E0692FC6E08B1709F47E
:104DC00045C04115510521F0AF3F21F020E003C05F
:104DD00021E001C0262F90E020FD35C0C89FF001E2
:104DE000C99FF00D1124EE5DF94F21812A132BC0CC
:104DF0002081271328C02281211125C023813481DD
:104E00002417350710F421503109241B350B283C99
:104E10003105C8F4209120062F70206120932006D0
:104E200026E0289FF001299FF00D1124E95DF94F3C
:104E300080818F70806180838BE196E00E9499036E
:104E4000CF910C94B62601968770B8CFCF91089574
:104E5000AF92BF92CF92DF92EF92FF920F931F9388
:104E6000CF93DF93CDB7DEB761970FB6F894DEBF6F
:104E70000FBECDBF8C0185E0F801DE011D960190CB
:104E80000D928A95E1F7D8013C9111962C911197DA
:104E90001296EC9050911B0660911C0680911E06A4
:104EA00090911F06009731F06F3F31F441E05F3F72
:104EB00019F403C041E001C040E0B42FB170BB2E33
:104EC00040FD43C1F801C380D480A0901D06AA20F4
:104ED00009F4E2C040912006C816D90628F0D60190
:104EE000A81BB90BCD0104C0809590958C0D9D1D1C
:104EF000FF24F394883C910548F0F12C407F09F0A1
:104F000090C08BE196E00E94990317C1842F807FA7
:104F100009F052C0621312C0531310C0FE2CE110EE
:104F20000DC04F704061409320068BE196E00E94D7
:104F3000990380912006F801858354C1CD2831F072
:104F40002F3F31F481E03F3F19F403C081E001C0FD
:104F500080E080FD03C081E08E2502C080E090E00B
:104F6000F82FF170FF2E80FF1CC0809152064091F7
:104F7000210656E0841709F412C190E0589FF00111
:104F8000599FF00D1124EE5DF94F6181261306C083
:104F90006081361303C06281E61203C001968770F8
:104FA000E9CFFE2CEE2009F41DC18091200681601E
:104FB00080932006F12C16C1621308C0531306C05B
:104FC000E11004C080912006F80199C03D872E872A
:104FD0008D859E850E942B26882369F1EE2059F14C
:104FE00020912006822F82958F7090E0029774F0B6
:104FF00080911B0690911C0698878F831986DB860B
:10500000CA862C87CE0107960E94990386E0F80194
:10501000ABE1B6E001900D928A95E1F70E94C026BF
:105020000DC0621771F03D872E878D859E850E9489
:105030002B2681111AC0C8010E949903FF24F39402
:10504000D1C05313F0CFE110EECF80912006F801CC
:105050008583C8010E94990386E0EBE1F6E0DF0159
:105060001D928A95E9F7FA2CBDC0EE2021F320911C
:105070002006822F82958F7090E002973CF28091FB
:105080001B0690911C069A8389831B82DD82CC8249
:105090002E83CE010196B8CFC816D90638F0C81AAB
:1050A000D90AB8ECCB16D10450F007C08095909582
:1050B0008C0D9D1D883C910510F0F12C3EC0FE2CFE
:1050C000EE2009F4B8CF621327C0531325C02091F6
:1050D000200620FD18C0822F82958F70482F50E047
:1050E0004115510581F0F80125834F30510541F0FC
:1050F0008F5F982F9295907F822F8F70892B858359
:10510000C8010E94990386E0F801ABE1B6E0019086
:105110000D928A95E1F766C03D872E878D859E8525
:105120000E942B26811172CF80912006816080938E
:105130002006C8010E94990355C0EBE1F6E086E025
:10514000DF011D928A95E9F74DC0EE2009F473CF77
:105150003D872E878D859E850E942B26F82E8823DD
:1051600009F469CF86E0F801ABE1B6E001900D9259
:105170008A95E1F780911B0690911C060E94682594
:1051800092959F70963041F480911A0691E089279C
:1051900080931A06909319060E94C02623C03D876B
:1051A0002E878D859E850E946825292F22952F7038
:1051B000223028F49F7039F0811105C00BC02430D3
:1051C00028F49F7049F4805E883020F0C8010E9466
:1051D0009903BF2CFB2C06C0D80115969C91907F9B
:1051E00091F7F8CF8F2D61960FB6F894DEBF0FBE02
:1051F000CDBFDF91CF911F910F91FF90EF90DF9086
:10520000CF90BF90AF90089510920E068091150137
:10521000882331F08091460587FF02C08EE101C0EE
:1052200086E0E6EBF5E0DF011D928A95E9F70C9444
:105230005426882341F0809590910D068923809310
:105240000D060C94E0240895882339F090910D0602
:10525000892B80930D060C94E0240895882341F057
:10526000809590910E06892380930E060C94E0247D
:105270000895882339F090910E06892B80930E06AD
:105280000C94E0240895CF93C82F0E94AA2CC93310
:1052900049F42FEF87EE93E0215080409040E1F7F2
:1052A00000C000008C2FCF910C94432C1F920F92C2
:1052B0000FB60F9211242F933F934F935F936F93E9
:1052C0007F938F939F93AF93BF93CF93DF93EF938E
:1052D000FF93C091E900CF708091EC00D82FD1707E
:1052E00080FDD0E81092E9008091F000877F8093E4
:1052F000F00078940E94E01E1092E9008091F00086
:1053000088608093F000CD2BCF70C093E900FF91AF
:10531000EF91DF91CF91BF91AF919F918F917F914D
:105320006F915F914F913F912F910F900FBE0F9012
:105330001F901895E8EDF0E080818E7F80831092B9
:10534000E2001092DA001092E100A0EEB0E08C9141
:1053500081608C9380818F77808319BCA7EDB0E04A
:105360008C918E7F8C9380818F7E808310925306E8
:1053700008952091E4003091E50095E64091EC001D
:10538000842F817040FF23C08091E80080FD1DC004
:1053900080919D05882399F0853099F08091EB00EC
:1053A00085FD11C04091E4005091E50024173507B8
:1053B00029F3915011F09A01E1CF84E0089582E041
:1053C000089583E0089581E0089580E00895409174
:1053D000E80042FFDDCF089580919F0587FF11C04F
:1053E0008091E80082FD05C080919D058111F8CF74
:1053F00011C08091E8008B770BC080919D058823B8
:1054000049F08091E80080FFF8CF8091E8008E7726
:105410008093E8000895982F973068F59093E900FD
:10542000981739F07091EC002091ED005091F00048
:1054300003C0242F762F50E021FD02C09F5FECCFE8
:105440003091EB003E7F3093EB003091ED003D7FDB
:105450003093ED003091EB0031603093EB007093AE
:10546000EC002093ED005093F0002091EE0027FD1A
:10547000E5CF80E008958F708093E90081E0089582
:10548000CF92DF92EF92FF920F931F93CF93DF9310
:10549000C8EDD0E088818F7E8883E7EDF0E08081E1
:1054A0008160808384E082BF81E08093530688819D
:1054B0008E7F888302EE10E0F80110821092DA00ED
:1054C00081EEC82ED12CF601108288818F778883D7
:1054D00088818068888388818F7D888319BC109239
:1054E0009D0510929E0510929C0510929B0590EED2
:1054F000E92EF12CF70180818B7F80838881816088
:10550000888342E060E080E00E940B2AF6018081FF
:105510008E7F8083F80180818160808380818860B4
:105520008083F70180818E7F80838881806188837A
:10553000DF91CF911F910F91FF90EF90DF90CF906F
:1055400008951F920F920FB60F9211242F933F933D
:105550004F935F936F937F938F939F93AF93BF937B
:10556000EF93FF938091E10082FF09C08091E200F8
:1055700082FF05C08091E1008B7F8093E1008091E4
:10558000DA0080FF2AC08091D80080FF26C0809179
:10559000DA008E7F8093DA008091D90080FF18C0F6
:1055A00080E189BD82E189BD09B400FEFDCF81E0C3
:1055B00080939D058091530681110FC00E949A2906
:1055C0000E94402A8091E20084608093E20005C03E
:1055D00019BC10929D05109253068091E10080FF46
:1055E00017C08091E20080FF13C08091E2008E7F9F
:1055F0008093E2008091E20080618093E2008091DC
:10560000D80080628093D80019BC85E080939D0506
:105610008091E10084FF34C08091E20084FF30C0BB
:1056200080E189BD82E189BD09B400FEFDCF809192
:10563000D8008F7D8093D8008091E1008F7E809389
:10564000E1008091E2008F7E8093E2008091E20091
:1056500081608093E20080919E05882311F084E0B0
:1056600007C08091E30087FD02C081E001C083E0B4
:1056700080939D050E9404290E94A816109254064A
:105680008091E10083FF27C08091E20083FF23C067
:105690008091E100877F8093E10082E080939D0507
:1056A00010929E058091E1008E7F8093E1008091B1
:1056B000E2008E7F8093E2008091E200806180931F
:1056C000E20042E060E080E00E940B2A8091F0005E
:1056D00088608093F000FF91EF91BF91AF919F910F
:1056E0008F917F916F915F914F913F912F910F908B
:1056F0000FBE0F901F9018952091A5053091A6051B
:105700002617370748F06115710539F42091E80034
:105710002E772093E80001C0B901FC0120E061155B
:10572000710591F180919D05882309F440C0853071
:1057300009F43FC08091E80083FD3DC08091E800FE
:1057400082FD2FC08091E80080FFE9CF2091F30017
:105750008091F20090E0922B6115710559F088302C
:10576000910540F424912093F10031966150710924
:105770000196F2CF21E0089709F020E08091E8003F
:105780008E778093E800CBCF2111CCCF0AC08091D7
:105790009D05882361F0853061F08091E80083FDEC
:1057A0000AC08091E80082FFF2CF80E0089582E095
:1057B000089583E0089581E008952091A505309132
:1057C000A6052617370748F06115710539F42091B1
:1057D000E8002E772093E80001C0B901FC0120E029
:1057E0006115710579F180919D058823F1F185306E
:1057F000F1F18091E80083FD3CC08091E80082FDDA
:105800002EC08091E80080FFEBCF2091F3008091C3
:10581000F20090E0922B6115710551F088309105EE
:1058200038F421912093F100615071090196F3CF72
:1058300021E0089709F020E08091E8008E778093BE
:10584000E800CECF2111CFCF0AC080919D058823DB
:1058500061F0853061F08091E80083FD0AC080919D
:10586000E80082FFF2CF80E0089582E0089583E0AF
:10587000089581E0089580919D05843011F081E0C4
:10588000089582E00895882309F463C0823869F49A
:105890000E94A81681FF5DC069E384EB95E00E9439
:1058A000D0230E94E02469E30EC0833891F40E9463
:1058B000A81680FF4EC063E584EB95E00E94D023DC
:1058C0000E94E02463E584EB95E00E94A8230C94F9
:1058D000E024843869F40E94A81682FF3AC067E485
:1058E00084EB95E00E94D0230E94E02467E4EBCF94
:1058F0009CEF980F913A10F4682FE5CF90E2980F43
:10590000983088F4877021E030E0A90102C0440F8C
:10591000551F8A95E2F7CA01809590910E0689235A
:1059200080930E06D4CF9BE5980F933020F480E04F
:1059300090E00C94921698E5980F973120F480E04F
:1059400090E00C947C16803F20F00E94DB210C94A8
:1059500069230895882309F489C08238B1F40E942C
:10596000A81681FD83C069E384EB95E00E94D023F3
:105970000E94E0242FEF41EE54E02150404050407F
:10598000E1F700C0000069E317C08338D9F40E9432
:10599000A81680FD6BC063E584EB95E00E94D023E0
:1059A0000E94E0248FEF91EE24E08150904020404F
:1059B000E1F700C0000063E584EB95E00E94A823B6
:1059C0000C94E0248438B1F40E94A81682FD4EC0E5
:1059D00067E484EB95E00E94D0230E94E0244FEF1F
:1059E00051EE84E0415050408040E1F700C000009B
:1059F00067E4E2CF9CEF980F913A30F4682F84EB84
:105A000095E00E94D023DCCF90E2980F983080F48C
:105A1000877021E030E0A90102C0440F551F8A952C
:105A2000E2F7CA0190910E06892B80930E06C8CF2B
:105A3000EBE5E80FE33038F4F0E0E458FC4F808108
:105A400090E00C949216E8E5E80FE73148F4F0E0B6
:105A5000EE0FFF1FE158FC4F808191810C947C1662
:105A6000803F20F00E94A5220C9469230895109293
:105A7000B9008CE08093B8000895EF92FF920F93E5
:105A80001F93CF93DF93182FEB011092BC0084EA91
:105A90008093BC000E945D237C018091BC0087FD47
:105AA0000EC0CF3F8FEFD807C1F30E945D238E1940
:105AB0009F098C179D0788F38EEF9FEF2EC0809172
:105AC000B900887F883041F08091B900887F8031AB
:105AD00019F08FEF9FEF21C01093BB0084E88093F3
